:020000040800F2
:1000000000800120B9070008350700083D070008F7
:10001000450700084D0700085507000800000000CC
:100020000000000000000000000000005D07000864
:100030006B07000800000000790700088707000828
:10004000090800080908000809080008090800084C
:10005000090800080908000809080008090800083C
:10006000090800080908000809080008090800082C
:10007000090800080908000809080008090800081C
:100080000908000809080008090800080000000025
:100090000000000000000000000000000908000847
:1000A00009080008090800080908000809080008EC
:1000B00009080008090800080908000809080008DC
:1000C00009080008090800080908000809080008CC
:1000D00009080008090800080908000800000000D5
:1000E00009080008090800080908000800000000C5
:1000F00000000000000000000000000009080008E7
:1001000000000000090800080908000809080008A4
:1001100000000000000000000000000000000000DF
:10012000090800080908000809080008090800086B
:1001300009080008000000000000000000000000A6
:100140000000000000000000000000000908000896
:10015000090800080908000809080008090800083B
:10016000090800080908000800000000000000005D
:10017000000000000000000000000000000000007F
:100180000000000009080008000000000000000056
:040190000908000852
:1001940010B5054C237833B9044B13B10448AFF3BD
:1001A40000800123237010BD940000200000000093
:1001B4008C1E000808B5034B1BB103490348AFF379
:1001C400008008BD00000000980000208C1E00087C
:1001D40080B485B000AF78607B6803F00703FB60F0
:1001E4000C4BDB68BB60BA684FF6FF031340BB607F
:1001F400FB681A02BB68134343F0BF6343F4003344
:10020400BB60044ABB68D36000BF1437BD465DF8C9
:10021400047B704700ED00E080B400AF044BDB6862
:100224001B0A03F007031846BD465DF8047B7047BC
:1002340000ED00E080B483B000AF03463960FB7189
:1002440097F90730002B0ADB3B68DAB20C4997F9BF
:1002540007301201D2B20B4483F800230AE03B6852
:10026400DAB20849FB7903F00F03043B1201D2B25E
:100274000B441A7600BF0C37BD465DF8047B70470B
:1002840000E100E000ED00E080B489B000AFF86068
:10029400B9607A60FB6803F00703FB61FB69C3F193
:1002A4000703042B28BF0423BB61FB690433062B1B
:1002B40002D9FB69033B00E000237B614FF0FF326E
:1002C400BB6902FA03F3DA43BB681A407B699A40BC
:1002D4004FF0FF317B6901FA03F3D9437B680B408C
:1002E400134318462437BD465DF8047B704700006D
:1002F40080B400AF054B1B68044A43F0010313604C
:1003040000BFBD465DF8047B704700BF0038024063
:1003140080B400AF064B1B6803F00203022B0CBF32
:1003240001230023DBB21846BD465DF8047B704709
:100334000038024080B483B000AF7860074B1B687C
:1003440023F0F8027B68DB00044913430B6000BF11
:100354000C37BD465DF8047B704700BF003802408F
:1003640080B483B000AF7860064B9B6823F003022F
:1003740004497B6813438B6000BF0C37BD465DF8AE
:10038400047B70470038024080B400AF044B9B6884
:1003940003F00C031846BD465DF8047B704700BFAC
:1003A4000038024080B483B000AF7860064B9B688D
:1003B40023F0F00204497B6813438B6000BF0C37C1
:1003C400BD465DF8047B70470038024080B483B0BA
:1003D40000AF7860064B9B6823F4E05204497B68C5
:1003E40013438B6000BF0C37BD465DF8047B704738
:1003F4000038024080B483B000AF7860064B9B683D
:1004040023F4604204497B6813438B6000BF0C37BC
:10041400BD465DF8047B70470038024080B483B069
:1004240000AF7860074BD3F88C3023F08072054915
:100434007B681343C1F88C3000BF0C37BD465DF8B0
:10044400047B70470038024080B485B000AF786008
:10045400084B1A6B07497B6813430B63054B1A6BF4
:100464007B681340FB60FB6800BF1437BD465DF832
:10047400047B70470038024080B485B000AF7860D8
:10048400084B1A6C07497B6813430B64054B1A6CC1
:100494007B681340FB60FB6800BF1437BD465DF802
:1004A400047B70470038024080B485B000AF7860A8
:1004B400084B5A6C07497B6813434B64054B5A6CD1
:1004C4007B681340FB60FB6800BF1437BD465DF8D2
:1004D400047B70470038024080B483B000AF78607A
:1004E400064B1B6823F0070204497B6813430B6027
:1004F40000BF0C37BD465DF8047B7047003C0240EA
:1005040080B400AF044B1B6803F007031846BD46D4
:100514005DF8047B704700BF003C024080B483B0A8
:1005240000AF7860064B1B6823F4404204497B68A3
:1005340013430B6000BF0C37BD465DF8047B704766
:100544000070004080B483B000AF786039607B688D
:100554003A689A6100BF0C37BD465DF8047B70476A
:1005640080B485B000AF786039607B685B69FB60FC
:10057400FA683B6813401A04FB68D9433B680B4094
:100584001A437B689A6100BF1437BD465DF8047B4B
:100594007047000080B500AF4FF48040FFF784FF40
:1005A4004FF08050FFF768FF0320FFF711FEFFF7BD
:1005B40033FE034600220F211846FFF765FE03466B
:1005C40019464FF0FF30FFF735FE00F01BF80B4BD8
:1005D4001B68184601F0FEFB084B1B68184601F027
:1005E40091FB00F049F800F0BFFA01210448FFF73D
:1005F400B7FF00F00BFB00BFF7E700BF00000020CF
:100604000004024080B500AF0020FFF765FF00BF83
:10061400FFF776FF0346002BFAD14FF40040FFF7B3
:100624007DFF1020FFF786FEFFF762FE00BFFFF795
:100634006FFE0346012BFAD10020FFF7B3FE002022
:10064400FFF7C4FE0020FFF7D5FE0020FFF788FE69
:1006540000BFFFF799FE0346002BFAD1054800F0CE
:1006640065FA044800F070FA0020FFF7D7FE00BFD7
:1006740080BD00BF0024F40080B586B000AF3B46C7
:1006840000221A605A609A60DA601A615A61012085
:10069400FFF7DAFE0220FFF7D7FEFC212248FFF71E
:1006A40051FF4FF484612148FFF74CFFFC233B606A
:1006B40001237B600023BB600023FB6001233B61BB
:1006C4003B461946184800F0A3F907233B60002372
:1006D4007B6001233B613B461946144800F098F9BE
:1006E4004FF480633B6001237B600023BB600123E4
:1006F400FB6000233B613B4619460C4800F088F937
:1007040020233B6001237B600023BB600023FB604C
:1007140001233B613B461946044800F079F900BFC8
:100724001837BD4680BD00BF0000024000040240EF
:1007340080B400AF00BFFDE780B400AF00BFFDE7A9
:1007440080B400AF00BFFDE780B400AF00BFFDE799
:1007540080B400AF00BFFDE780B400AF00BFBD466A
:100764005DF8047B704780B400AF00BFBD465DF800
:10077400047B704780B400AF00BFBD465DF8047BC6
:10078400704780B500AF01F04DFB00BF80BD000095
:1007940080B400AF064BD3F88830054A43F47003A5
:1007A400C2F8883000BFBD465DF8047B704700BFC7
:1007B40000ED00E0DFF834D00D480E490E4A002366
:1007C40002E0D458C4500433C4188C42F9D30B4A01
:1007D4000B4C002301E013600432A242FBD3FFF769
:1007E400D7FF01F02DFBFFF7D5FE704700800120F5
:1007F4000000002094000020F41E00089400002053
:10080400E0000020FEE780B489B000AFF860B96072
:100814007A60FB681A68BB687B617B6993FAA3F30F
:100824003B613B69B3FA83F3DBB25B00032101FA5A
:1008340003F3DB431A40BB68FB61FB6993FAA3F340
:10084400BB61BB69B3FA83F3DBB25B00796801FA7D
:1008540003F31A43FB681A6000BF2437BD465DF8F2
:10086400047B704780B485B000AFF860B9607A60EB
:10087400FB685A68BB68DB431A40BB68796801FBB4
:1008840003F31A43FB685A6000BF1437BD465DF892
:10089400047B704780B489B000AFF860B9607A60B7
:1008A400FB689A68BB687B617B6993FAA3F33B613D
:1008B4003B69B3FA83F3DBB25B00032101FA03F370
:1008C400DB431A40BB68FB61FB6993FAA3F3BB618A
:1008D400BB69B3FA83F3DBB25B00796801FA03F313
:1008E4001A43FB689A6000BF2437BD465DF8047B59
:1008F400704780B489B000AFF860B9607A60FB6873
:10090400DA68BB687B617B6993FAA3F33B613B695B
:10091400B3FA83F3DBB25B00032101FA03F3DB4395
:100924001A40BB68FB61FB6993FAA3F3BB61BB6923
:10093400B3FA83F3DBB25B00796801FA03F31A4379
:10094400FB68DA6000BF2437BD465DF8047B70475E
:1009540080B489B000AFF860B9607A60FB681A6A45
:10096400BB687B617B6993FAA3F33B613B69B3FA90
:1009740083F3DBB29B000F2101FA03F3DB431A403C
:10098400BB68FB61FB6993FAA3F3BB61BB69B3FA70
:1009940083F3DBB29B00796801FA03F31A43FB6823
:1009A4001A6200BF2437BD465DF8047B704780B4EB
:1009B40089B000AFF860B9607A60FB685A6ABB68B6
:1009C4001B0A7B617B6993FAA3F33B613B69B3FA2E
:1009D40083F3DBB29B000F2101FA03F3DB431A40DC
:1009E400BB681B0AFB61FB6993FAA3F3BB61BB6998
:1009F400B3FA83F3DBB29B00796801FA03F31A4379
:100A0400FB685A6200BF2437BD465DF8047B70471B
:100A140080B588B000AF786039600023FB610023A3
:100A2400BB613B681B687B617B6993FAA3F33B6101
:100A34003B69B3FA83F3DBB2FB6150E03B681A68AD
:100A44000121FB6901FA03F31340BB61BB69002B6D
:100A540042D03B685B68012B03D03B685B68022B88
:100A64000DD13B689B681A46B9697868FFF712FF95
:100A74003B68DB681A46B9697868FFF7F3FE3B68A0
:100A84001B691A46B9697868FFF733FF3B685B68EE
:100A9400022B1AD1BB69FB60FB6893FAA3F3BB601A
:100AA400BB68B3FA83F3DBB2072B07D83B685B69F7
:100AB4001A46B9697868FFF74BFF06E03B685B6943
:100AC4001A46B9697868FFF772FF3B685B681A4693
:100AD400B9697868FFF797FEFB690133FB613B68EE
:100AE4001A68FB6922FA03F3002BA7D100231846E6
:100AF4002037BD4680BD000080B483B000AF78606D
:100B040039607A683B68B2FBF3F3074A013B5360F0
:100B1400054B00229A60044B05221A6000BF0C3773
:100B2400BD465DF8047B704710E000E080B582B0FC
:100B340000AF78604FF47A717868FFF7DDFF00BF8B
:100B44000837BD4680BD000080B483B000AF786034
:100B5400044A7B68136000BF0C37BD465DF8047B14
:100B6400704700BF0000002080B500AF1A4800F0B5
:100B7400F0FE1A4800F06AFA0221184800F0BBFAA5
:100B8400154800F02CFF00220021134800F08AFFD2
:100B9400134800F0B5F9134800F0B2F9124800F018
:100BA400AFF9124800F043FE114B00221A70114BAA
:100BB40000221A70104B00221A60104B00221A6097
:100BC4000F4B19221A600F4B19221A600E4B002288
:100BD4001A7000BF80BD00BF040000203400002054
:100BE4005000002064000020780000208C000020C9
:100BF400B0000020B1000020D0000020B40000208C
:100C0400B8000020BC000020C000002080B500AF68
:100C140000F00AF800F02CF800F066F800F0BCF8D8
:100C240000F0D2F800BF80BD80B582B000AF01F003
:100C3400EDF878600A4B1B687A68D31A092B0BD934
:100C4400074A7B681360074800F081F9064800F002
:100C54007EF9064800F07BF900BF0837BD4680BD29
:100C6400C400002050000020640000207800002010
:100C740080B582B000AF01F0C9F878607968164891
:100C840000F064FB154B1B687A68D31AB3F5FA7F3E
:100C940006D3124A7B68136079680F4800F027FB7B
:100CA4000D4800F08BFB0346002B11D03B46194640
:100CB400094800F094FB0346002B06D03B68084A21
:100CC4001360084B01221A7002E0064B00221A70CE
:100CD40000BF0837BD4680BD34000020C800002096
:100CE400B4000020C000002080B500AF244B1B7866
:100CF400002B02D0012B0ED039E0224800F067F916
:100D04000346002B37D0204B1B68204A13601C4B32
:100D140001221A702FE01E4800F059F90346002BF7
:100D240008D01A4B1B68222B04DC184B1B680133B8
:100D3400164A1360174800F04AF90346002B08D0FE
:100D4400124B1B680F2B04DD104B1B68013B0F4A31
:100D540013600C4800F03BF90346002B0DD00B4BFD
:100D64001B68094A1360064B00221A7005E0044B05
:100D740000221A7002E000BF00E000BF00BF80BD87
:100D8400B000002078000020BC000020B800002043
:100D9400500000206400002080B500AF074B1A68A3
:100DA400074B1B689A4203DD064800F057FD02E03A
:100DB400044800F077FD00BF80BD00BFB4000020F0
:100DC400BC0000208C00002080B582B000AF01F090
:100DD4001DF878603C4B1B687A68D31AC72B6DD911
:100DE400394A7B681360394B1B7883F00103DBB20B
:100DF400002B65D1364B1B78002B02D0012B2CD055
:100E040052E000220021334800F04CFE32493148C0
:100E140000F070FE314B1B6819462E4800F088FE26
:100E24002F492C4800F066FE00220121294800F0D9
:100E340039FE2C49274800F05DFE2B4800F056FD92
:100E44000346002B04D02949224800F053FE38E021
:100E54002749204800F04EFE33E0002200211D48BF
:100E640000F020FE23491B4800F044FE224B1B687F
:100E74001946184800F05CFE1949164800F03AFE7D
:100E840000220121134800F00DFE1349114800F01F
:100E940031FE124B1B6819460E4800F049FE1049FA
:100EA4000C4800F027FE0CE000220021094800F065
:100EB400F9FD1249074800F01DFE02E000BF00E002
:100EC40000BF0837BD4680BDCC000020C000002014
:100ED400B000002004000020A41E0008B40000207C
:100EE400B41E0008B81E00088C000020C41E0008B0
:100EF400CC1E0008D41E0008B8000020E41E000820
:100F040080B582B000AF78607B68002B1BD07B6813
:100F14001B68002B17D07B681B790F2B13D87B68B9
:100F240000221A7200F072FF02467B68DA60786869
:100F340000F063F803461A467B68DA717B68DA7955
:100F44007B689A7100E000BF0837BD4680BD80B55C
:100F540084B000AF78607B68002B34D07B681B685A
:100F6400002B30D07B681B790F2B2CD8786800F0CD
:100F740044F80346FB7300F049FFB8607B68DB79F3
:100F8400FA7B9A4205D07B68FA7BDA717B68BA688F
:100F9400DA607B68DB68BA68D21A7B681B699A429C
:100FA40012D37B689A797B68DB799A420CD07B6890
:100FB400DA797B689A717B689B79002B04D07B6813
:100FC40001221A7200E000BF1037BD4680BD80B414
:100FD40085B000AF78607B68002B01D1002306E068
:100FE4007B681B7AFB737B6800221A72FB7B1846B2
:100FF4001437BD465DF8047B704780B485B000AFFC
:1010040078607B681B681B697A681279D34003F0A7
:101014000103002B14BF01230023FB737B685B795E
:10102400002B0CD1FB7B002B14BF01230023DBB26C
:1010340083F00103DBB203F00103DBB200E0FB7BCE
:1010440018461437BD465DF8047B704780B582B0FE
:1010540000AF78607B68002B2BD07B681B68002B6B
:1010640027D07B681B790F2B23D87B6802225A7107
:101074007B685B79184600F020F802467B689A602A
:101084007B6800221A737B6800221A617B68002245
:101094005A617B6800221A767B6800225A76786847
:1010A40000F0D0FA7B685B791946786800F023F881
:1010B40000E000BF0837BD4680BD80B483B000AFF8
:1010C4000346FB71FB79022B0AD0022B0BDC002BAD
:1010D40002D0012B02D006E05E2306E0BC2304E02C
:1010E40040F2771301E040F2EE2318460C37BD4678
:1010F4005DF8047B704780B584B000AF78600B4620
:10110400FB707B68002B07D07B681B68002B03D027
:101114007B681B790F2B01D9002340E0FB78022B5D
:101124000CD0022B0DDC002B02D0012B03D008E0E5
:101134001F23FB7308E03F23FB7305E05F23FB736E
:1011440002E07F23FB7300BF786800F02CF80346AD
:1011540083F00103DBB2002B01D000231FE0CC217C
:10116400786800F0ADF94E21786800F0A9F94B21B8
:10117400786800F0A5F94621786800F0A1F9FB7BB6
:101184001946786800F09CF97B68FA785A71FB7804
:101194001846FFF792FF02467B689A6001231846BF
:1011A4001037BD4680BD80B584B000AF78607B68E1
:1011B400002B07D07B681B68002B03D07B681B794E
:1011C4000F2B01D9002326E0786800F0F2F9002102
:1011D400786800F0B5F94FF4F07000F0D7FD786846
:1011E40000F030FA282000F0D1FD786800F0CAF948
:1011F4000346002B14BF01230023DBB283F0010359
:10120400DBB2FB73FB7B03F00103FB734FF4D2707F
:1012140000F0BCFDFB7B18461037BD4680BD80B591
:1012240082B000AF78607B68002B07D07B681B68B6
:10123400002B03D07B681B790F2B01D9002313E00B
:101244007868FFF7B0FF034683F00103DBB2002B9D
:1012540001D0002308E0CC21786800F031F9442162
:10126400786800F02DF9012318460837BD4680BD83
:1012740080B588B000AF786039607B68002B02D0FD
:101284003B68002B01D100232DE007F10C03194624
:10129400786800F043FA034683F00103DBB2002BC5
:1012A40007D07B6800221A767B6800225A760023D6
:1012B40019E007F10C03184600F073FA0346FB83A8
:1012C400B7F91E30184600F081FAB8613B68BA6974
:1012D4001A607B68BA695A617B6801221A767B6856
:1012E40001225A76012318462037BD4680BD80B5B9
:1012F40082B000AF786039607B68002B01D1002395
:1013040020E07B681B7B002B01D000231AE0786867
:10131400FFF785FF034683F00103DBB2002B07D000
:101324007B6800221A767B6800225A76002309E043
:101334007B683A681A617B6801221A737B68002211
:101344005A76012318460837BD4680BD80B584B05F
:1013540000AF786039607B68002B27D07B681B7BEB
:10136400002B25D0012B1DD17B681B693A68D21A4A
:101374007B689B689A421DD307F10C031946786871
:10138400FFF776FF034683F00103DBB2002B05D0A1
:101394007B6800221A767B6800225A767B680022DA
:1013A4001A7307E07B6800221A7304E000BF02E0AE
:1013B40000BF00E000BF1037BD4680BD80B483B0DD
:1013C40000AF78607B68002B01D1002301E07B68CB
:1013D4005B7E18460C37BD465DF8047B704780B4CD
:1013E40083B000AF786039607B68002B02D03B6823
:1013F400002B01D1002310E07B681B7E83F00103E6
:10140400DBB2002B01D0002307E07B685A693B68FC
:101414001A607B6800225A76012318460C37BD46B1
:101424005DF8047B704780B582B000AF78600B46EE
:10143400FB70786800F0BDF80021786800F080F84F
:10144400FB78002B09D0062000F0A0FC786800F09F
:10145400F9F8402000F09AFC08E03C2000F096FCEB
:10146400786800F0EFF80A2000F090FC00BF08371D
:10147400BD4680BD80B584B000AF7860786800F068
:1014840098F80021786800F05BF8032000F07EFCF7
:10149400786800F0D7F80C2000F078FC786800F049
:1014A40071F80346002B01D0012300E00023FB73F5
:1014B400322000F06BFCFB7B18461037BD4680BD24
:1014C40080B584B000AF78600B46FB700023FB73DB
:1014D4000EE0FA78FB7B42FA03F3DBB203F001037C
:1014E400DBB219467868FFF79EFFFB7B0133FB7381
:1014F400FB7B072BEDD900BF00BF1037BD4680BD75
:1015040080B584B000AF78600023BB730023FB7305
:101514000EE07868FFF7AEFF03461A46FB7B02FA3B
:1015240003F3DAB2BB7B1343BB73FB7B0133FB7363
:10153400FB7B072BEDD9BB7B18461037BD4680BD1E
:1015440080B483B000AF78600B46FB70FB78002B4F
:1015540008D07B681B7919467B681B6801228A4086
:101564009A6109E07B681B7903F110027B681B68B0
:10157400012101FA02F29A6100BF0C37BD465DF801
:10158400047B704780B483B000AF78607B681B68CD
:101594001B697A681279D34003F00103002B14BF4E
:1015A40001230023DBB218460C37BD465DF8047BEB
:1015B400704780B485B000AF78607B681B795B00AE
:1015C400FB607B681B6819680322FB6802FA03F35B
:1015D400DA437B681B680A401A607B681B681968D9
:1015E4000122FB689A407B681B680A431A607B6887
:1015F4001B6859687B681B791A46012303FA02F2B7
:101604007B681B680A435A607B681B6899680322DD
:10161400FB6802FA03F3DA437B681B680A409A60AA
:101624007B681B68D9680322FB6802FA03F3DA4378
:101634007B681B680A40DA6000BF1437BD465DF85A
:10164400047B704780B485B000AF78607B681B79F9
:101654005B00FB607B681B6819680322FB6802FA65
:1016640003F3DA437B681B680A401A607B681B68D3
:10167400D9680322FB6802FA03F3DA437B681B6828
:101684000A40DA607B681B68D9680122FB689A40CB
:101694007B681B680A43DA6000BF1437BD465DF8F7
:1016A400047B704780B485B000AF78600B46FB7054
:1016B4000023FB730023BB7325E0BB7B7A681344D0
:1016C4001B783B7300237B7317E0FA7B3B7B53400F
:1016D400DBB203F00103FB72FB7B5B08FB73FB7A59
:1016E400002B04D0FB7B83F07303DB43FB733B7B56
:1016F4005B083B737B7B01337B737B7B072BE4D9D8
:10170400BB7B0133BB73BA7BFB789A42D5D3FB7B9B
:1017140018461437BD465DF8047B704790B585B014
:1017240000AF786039607B68002B02D03B68002BE7
:1017340001D1002331E07868FFF735FD034683F0DB
:101744000103DBB2002B01D0002326E0CC21786812
:10175400FFF7B6FEBE217868FFF7B2FE0023FB73E5
:101764000AE0FB7B3A68D4187868FFF7C9FE0346A1
:101774002370FB7B0133FB73FB7B082BF1D908211E
:101784003868FFF78FFF03461A463B6808331B7817
:101794009A4201D0002300E0012318461437BD46C5
:1017A40090BD80B483B000AF78607B6801331B7850
:1017B4001BB21B021AB27B681B781BB213431BB209
:1017C40018460C37BD465DF8047B704780B485B07D
:1017D40000AF0346FB80B7F9063007EE903AB8EE47
:1017E400E77AF3EE006AC7EE267AC7ED037AD7EDFF
:1017F400037AF5EEC07AF1EE10FA08DBD7ED037A3E
:10180400B6EE007A77EE877AFDEEE77A07E0D7ED59
:10181400037AB6EE007A77EEC77AFDEEE77A17EE32
:10182400903A18461437BD465DF8047B704780B57E
:1018340082B000AF78607B68002B0BD07B681B689C
:10184400002B07D07B681B790F2B03D8786800F036
:1018540029F800E000BF0837BD4680BD80B582B0DE
:1018640000AF78607B68002B18D07B681B68002B66
:1018740014D07B681B790F2B10D87B685B79002B05
:1018840004D10121786800F042F803E0002178686F
:1018940000F03DF87B6801229A7100E000BF083730
:1018A400BD4680BD80B582B000AF78607B68002BF8
:1018B40018D07B681B68002B14D07B681B790F2B16
:1018C40010D87B685B79002B04D10021786800F084
:1018D4001EF803E00121786800F019F87B68002203
:1018E4009A7100E000BF0837BD4680BD80B483B064
:1018F40000AF78607B68002B01D1002301E07B6896
:101904009B7918460C37BD465DF8047B704780B45C
:1019140083B000AF78600B46FB70FB78002B08D0D7
:101924007B681B7919467B681B6801228A409A618F
:1019340009E07B681B7903F110027B681B680121B5
:1019440001FA02F29A6100BF0C37BD465DF8047BD0
:10195400704780B582B000AF78607B68002B3AD0C6
:10196400282000F0FDF97B6818687B681B79002249
:10197400194600F043F90321786800F081F9052045
:1019840000F0EEF90321786800F07AF9962000F06F
:10199400FDF90321786800F073F9962000F0F6F958
:1019A4000221786800F06CF9962000F0EFF9282104
:1019B400786800F027F80C21786800F023F80621F5
:1019C400786800F01FF80121786800F01BF8022005
:1019D40000F0C6F900E000BF0837BD4680BD80B501
:1019E40082B000AF78607B68002B07D00121786853
:1019F40000F008F8022000F0B3F900E000BF083757
:101A0400BD4680BD80B582B000AF78600B46FB70E8
:101A14007B68002B1AD07B6818687B681B790022CE
:101A2400194600F0EBF8FB781B09DBB2194678681D
:101A340000F026F9FB7803F00F03DBB2194678684F
:101A440000F01EF9322000F0A1F900E000BF0837D1
:101A5400BD4680BD80B582B000AF78600B46FB7098
:101A64007B68002B1AD07B6818687B681B7901227D
:101A7400194600F0C3F8FB781B09DBB219467868F5
:101A840000F0FEF8FB7803F00F03DBB21946786828
:101A940000F0F6F8322000F079F900E000BF0837D2
:101AA400BD4680BD80B584B000AF78600B46FB7046
:101AB4001346BB707B68002B18D0FB78002B02D038
:101AC400012B03D006E0BB78FB7306E0BB78403300
:101AD400FB7302E0BB78FB7300BFFB7B63F07F0307
:101AE400DBB219467868FFF78DFF00E000BF1037BE
:101AF400BD4680BD80B582B000AF786039607B6838
:101B0400002B11D03B68002B0ED008E03B681B78FB
:101B140019467868FFF79EFF3B6801333B603B68DA
:101B24001B78002BF2D100E000BF0837BD4680BD12
:101B340080B58AB000AF7860396000237B620023EF
:101B4400FB617B68002B52D03B68002B04D1302111
:101B54007868FFF77FFF4BE03B68002B25DA012311
:101B6400FB613B685B423B601FE03A68224B83FBAE
:101B740002139910D317C91A0B469B000B445B0040
:101B8400D31ABB61BB69DAB27B6A591C7962303201
:101B9400D2B228333B4403F81C2C3B68164A82FB20
:101BA40003129210DB17D31A3B603B68002BDCDC7A
:101BB400FB69002B07D07B6A5A1C7A6228333B44AA
:101BC4002D2203F81C2C7B6A013B3B620BE007F1DE
:101BD4000C023B6A13441B7819467868FFF73AFFF6
:101BE4003B6A013B3B623B6A002BF0DA00E000BF3A
:101BF4002837BD4680BD00BF6766666680B483B083
:101C040000AF78600B46FB701346BB707B68002BFB
:101C140012D0FB780F2B0FD8BB78002B05D0FB78A4
:101C240001229A407B689A6107E0FB781033012215
:101C34009A407B689A6100E000BF0C37BD465DF8AE
:101C4400047B704780B582B000AF78607B68986889
:101C54007B681B7B01221946FFF7D0FF022000F0AE
:101C640095F87B6898687B681B7B00221946FFF710
:101C7400C5FF322000F08AF800BF0837BD4680BD9A
:101C840080B582B000AF78600B46FB707B68186942
:101C94007B68197DFB7803F00103DBB21A46FFF77A
:101CA400ADFF7B6898697B68197FFB785B08DBB2C2
:101CB40003F00103DBB21A46FFF7A0FF7B68186A42
:101CC4007B6893F82410FB789B08DBB203F00103D4
:101CD400DBB21A46FFF792FF7B68986A7B6893F839
:101CE4002C10FB78DB08DBB203F00103DBB21A46ED
:101CF400FFF784FF7868FFF7A5FF00BF0837BD46EC
:101D040080BD000080B483B000AF78600F4A7B6868
:101D140013600E4B1B680E4AA2FB03239B0C0D4A57
:101D240013600D4BDB680C4A43F08073D3600B4B9C
:101D340000225A60094B1B68084A43F001031360F0
:101D440000BF0C37BD465DF8047B7047D40000200B
:101D540083DE1B43D8000020F0ED00E0001000E01B
:101D640080B584B000AF786000F050F8F86000BF30
:101D740000F04CF80246FB68D31A7A689A42F7D806
:101D840000BF00BF1037BD4680BD000080B485B0E1
:101D940000AF78600D4B1B68002B11D00B4B1A68F9
:101DA4007B6802FB03F3FB60094B5B68BB6000BF0D
:101DB400074B5A68BB68D31AFA689A42F8D800E00D
:101DC40000BF1437BD465DF8047B7047D80000207F
:101DD400001000E080B483B000AF78607B68094AEB
:101DE400A2FB03239B09084A013B5360064B0022D4
:101DF4009A60054B07221A6000BF0C37BD465DF898
:101E0400047B7047D34D621010E000E080B400AF53
:101E1400034B1B681846BD465DF8047B704700BF42
:101E2400DC00002080B400AF044B1B680133034A7C
:101E3400136000BFBD465DF8047B7047DC000020E2
:101E440070B50D4D0D4C641BA4100026A64209D19B
:101E54000B4D0C4C00F018F8641BA4100026A6428D
:101E640005D170BD55F8043B98470136EEE755F8A7
:101E7400043B98470136F2E7EC1E0008EC1E00080C
:101E8400EC1E0008F01E0008F8B500BFF8BC08BC42
:101E94009E467047F8B500BFF8BC08BC9E46704724
:101EA40054656D70657261747572653A0000000066
:101EB4002043000046616E2073746174653A00002B
:101EC4004F4E2020202000004F46462020200000B6
:101ED4005345542054454D5020544F3A00000000BF
:081EE4004552524F520000006C
:041EEC00B901000830
:041EF0009501000850
:101EF4000024F40000000240020000000000024040
:101F04000300000000000240040000000000024042
:101F1400050000000000024006000000000002402E
:101F240007000000000402400A0000000000000056
:101F3400000000000000000000000000000000009D
:101F44000004024000000000000000000000000047
:101F54001400000000040240010000000000000022
:101F64000000000014000000000402400200000011
:101F74000000000000000000140000000004024003
:041F84000500000054
:04000005080007B92F
:00000001FF
